:020000040800F2
:1000000000800120310600088106000881060008F2
:100010008106000881060008810600080000000033
:100020000000000000000000000000008106000841
:100030008106000800000000810600088106000813
:100040000000000081060008810600088106000803
:100050008106000881060008810600088106000864
:100060008106000881060008810600088106000854
:100070008106000881060008810600088106000844
:1000800081060008810600088106000800000000C3
:1000900000000000000000000000000081060008D1
:1000A0008106000881060008810600088106000814
:1000B0008106000881060008810600088106000804
:1000C00081060008810600088106000881060008F4
:1000D0008106000881060008810600080000000073
:1000E0008106000881060008810600080000000063
:1000F0000000000000000000000000008106000871
:100100000000000081060008810600088106000842
:1001100000000000000000000000000000000000DF
:100120008106000881060008810600088106000893
:100130008106000800000000000000000000000030
:100140000000000000000000000000008106000820
:100150008106000881060008810600088106000863
:100160008106000881060008000000000000000071
:10017000000000000000000000000000000000007F
:10018000000000000000000000000000000000006F
:0401900081060008DC
:1001A00010B5054C237833B9044B13B10448AFF3B1
:1001B00000800123237010BD6400002000000000B7
:1001C000B40F000808B5034B1BB103490348AFF354
:1001D000008008BD0000000068000020B40F000887
:1001E00001F0FF01102A2BDB10F0070F08D010F8E8
:1001F000013B013A8B422DD010F0070F42B3F6D1EC
:10020000F0B441EA012141EA014122F007047FF004
:1002100000070023F0E80256083C85EA010586EA5B
:10022000010685FA47F5A3FA87F586FA47F6A5FA97
:1002300087F68EB9EED1F0BC01F0FF0102F00702A3
:1002400032B110F8013B013A83EA010313B1F8D14E
:100250000020704701387047002D06BF354603382F
:10026000073815F0010F07D1013015F4807F02BF68
:10027000013015F4C03F0130F0BC0138704700BFB9
:1002800080B400AF184B1B68174A43F0010313609A
:1002900000BF154B1B6803F00203002BF9D0134B72
:1002A0001B68124A43F400431360114B1B68104A49
:1002B00043F4E06343F0050313600B4B0A4A9B6869
:1002C000936000BF084B9B6803F00403002BF9D137
:1002D000054B9B6803F00803002BF3D100BF00BF60
:1002E000BD465DF8047B7047003802400070004056
:1002F000003C024080B483B000AF4FF47A737B605F
:10030000134A7B68B2FBF3F3013B3B60114B5B6C20
:10031000104A43F0010353640F4B9A6A0E493B683D
:1003200013438B620C4B4FF6FF72DA620A4B1B6869
:10033000094A43F001031360074B1B68064A23F088
:100340001003136000BF0C37BD465DF8047B704797
:100350000024F400003802400000014080B483B063
:1003600000AF7860074B00225A6200BF054B5A6A03
:100370007B689A42FAD300BF00BF0C37BD465DF8D8
:10038000047B70470000014080B485B000AF1E4B75
:100390005B6C1D4A43F0100353641C4BDB681B4A23
:1003A00043F00803D360194BDB68184A43F4005349
:1003B000D360164BDB68154A23F48053D360134B8C
:1003C000DB68124A23F48063D360104B1B690F4A29
:1003D00023F4005313616823FB60FB68BB60FA6879
:1003E000BB68D31A1B017B60084B9A68BB68190174
:1003F0007B680B43054913438B6000BF1437BD4630
:100400005DF8047B704700BF0038024000100140D7
:1004100080B483B000AF78600DE07B681A780B4B36
:100420005A6000BF094B1B6803F04003002BF9D052
:100430007B6801337B607B681B78002BEDD100BFAC
:1004400000BF0C37BD465DF8047B704700100140CB
:1004500080B400AF1A4B5B6C194A43F48073536449
:10046000184B5B68174A23F440335360164B5B68A4
:10047000154A43F080735360134B9B68124A43F054
:1004800001039360104B9B680F4A43F00203936093
:100490000D4B9B680C4A43F4806393600A4B9B6846
:1004A000094A23F400639360074B1B69064A23F053
:1004B0003803136100BFBD465DF8047B704700BF81
:1004C00000380240002301400020014080B483B086
:1004D00000AF78600C4B5A6B7B680B4913434B633E
:1004E000094B9B68084A43F08043936000BF064B6A
:1004F0001B6803F00203002BF9D000BF00BF0C37CC
:10050000BD465DF8047B70470020014080B400AF19
:10051000034BDB6C1846BD465DF8047B704700BF9B
:100520000020014080B500AFFFF7AAFE00F024F8DC
:10053000FFF7E0FEFFF728FFFFF78AFF0120FFF734
:10054000C5FFFFF7E3FF0346084A1360074B1B682C
:100550001A460749074800F0BFF80648FFF758FF5A
:100560004FF47A70FFF7FAFEE8E700BF8000002042
:10057000CC0F00088400002080B400AF0F4B1B6B31
:100580000E4A43F0010313630D4B1B680C4A43F4FE
:10059000002343F00C031360094B9B68084A43F0A7
:1005A00008139360064B5B6A054A43F0700353627D
:1005B00000BFBD465DF8047B704700BF00380240B5
:1005C0000000024080B586B000AF7860144A154B39
:1005D000D31A7B617B693B61134B1B68002B02D1F3
:1005E000114B124A1A60104B1A687B6813443A691F
:1005F0009A4207D200F046F803460C221A604FF0E8
:10060000FF3309E0084B1B68FB60074B1A687B68E7
:100610001344054A1360FB6818461837BD4680BD71
:10062000008001200004000098000020B00000209D
:100630000D488546AFF300800C480D490D4A002354
:1006400002E0D458C4500433C4188C42F9D30A4A87
:100650000A4C002301E013600432A242FBD300F0F5
:1006600017F8FFF75FFFFEE7008001200000002081
:10067000640000201810000864000020AC00002076
:10068000FEE70000014B1868704700BF0000002023
:1006900070B50D4D0D4C641BA4100026A64209D167
:1006A0000B4D0C4C00F086FC641BA4100026A642E7
:1006B00005D170BD55F8043B98470136EEE755F873
:1006C000043B98470136F2E71010000810100008AC
:1006D00010100008141000080EB400B59CB01DAB3B
:1006E000029006906FF00041094807910491094972
:1006F00053F8042B05910068019302A900F068F8F3
:10070000029B00221A701CB05DF804EB03B0704726
:10071000000000200802FFFF2DE9F0478E689E428E
:1007200082460C4690461F4638D88A8912F4906F4C
:1007300032D025680969A5EB0109656905EB450516
:1007400005EBD57501334B446D109D4238BF1D46F6
:10075000530531D5294600F063FB064650B90C23FA
:10076000CAF80030A38943F04003A3814FF0FF3063
:10077000BDE8F08721694A4600F0BEFAA38923F458
:10078000906343F08003A381266165614E44A5EB2D
:1007900009052660A5603E46BE4200D93E46206857
:1007A0003246414600F0B6FAA3689B1BA36023685B
:1007B000334423600020DBE72A4600F0A5FB064611
:1007C0000028E1D12169504600F0BEFAC7E70000D9
:1007D0002DE9F04F98468B891B069DB007460D46C4
:1007E00014460ED50B6963B9402100F019FB28604F
:1007F000286120B90C233B604FF0FF30D1E040234B
:100800006B610023099320238DF82930CDF80C80EB
:100810003023DFF8A8818DF82A304FF001092346F4
:100820009A4613F8012B0AB1252AF9D1BAEB040B29
:100830000BD05B46224629463846FFF76DFF013054
:1008400000F0AA80099A5A4409929AF80030002BC5
:1008500000F0A28000234FF0FF32CDE905230AF11A
:10086000010A049307938DF853301A9354460522D6
:1008700014F8011B5148FFF7B3FC049AD8B9D0060D
:1008800044BF20238DF85330110744BF2B238DF82C
:1008900053309AF800302A2B15D0079A544600207E
:1008A0004FF00A0C214611F8013B303B092B4ED981
:1008B000B0B1079214E0A0EB080309FA03F3134365
:1008C0000493A246D2E7039B191D1B680391002BDA
:1008D000BBBF5B4242F0020207930793B8BF04928A
:1008E00023782E2B0CD163782A2B35D1039B1A1D2C
:1008F0001B680392002BB8BF4FF0FF3302340593FF
:10090000DFF8C8A0217803225046FFF769FC40B108
:100910004023A0EB0A0003FA00F0049B03430134D8
:10092000049314F8011B26488DF828100622FFF7BF
:1009300057FC002838D0234B1BBB039B073323F005
:10094000070308330393099B3344099367E70CFBC0
:1009500002320C460120A5E7002301340593194615
:100960004FF00A0C204610F8012B303A092A03D91F
:10097000002BC5D00591C3E70CFB012104460123E0
:10098000F0E703AB00932A460F4B04A93846AFF3B8
:100990000080421C0646D6D1AB895B063FF52CAFE2
:1009A00009981DB0BDE8F08F03AB00932A46064BB3
:1009B00004A9384600F07AF8EBE700BFDD0F000825
:1009C000E70F00080000000019070008E30F000807
:1009D0002DE9F047164699468A680B69DDF82080B4
:1009E0009342B8BF1346336091F8432007460C4644
:1009F0000AB1013333602368990642BF336802337A
:100A00003360256815F0060506D104F1190AE3687C
:100A100032689B1AAB4226DC94F84320131E2268EE
:100A200018BF012392062BD404F1430249463846ED
:100A3000C04701301ED02368E568326803F0060322
:100A4000042B08BFAD1AA36822690CBF25EAE5751F
:100A500000259342C4BF9B1AED1800261A34B542F4
:100A60001AD1002008E00123524649463846C047C3
:100A7000013003D14FF0FF30BDE8F0870135C6E704
:100A8000E1185A1C302081F84300224494F84510A4
:100A900082F843100233C7E701232246494638460D
:100AA000C0470130E6D00136D9E700002DE9FF4705
:100AB0000F7E0C9D782F914680460C469A4601F198
:100AC000430207D8622F0AD8002F00F0D880582F91
:100AD00000F0A38004F1420584F842703AE0A7F1E7
:100AE0006303152BF6D801A151F823F0450B00083C
:100AF000590B0008D50A0008D50A0008D50A0008D5
:100B0000D50A0008590B0008D50A0008D50A0008C4
:100B1000D50A0008D50A0008650C0008890B0008F2
:100B2000470C0008D50A0008D50A0008870C000801
:100B3000D50A0008890B0008D50A0008D50A000864
:100B40004F0C00082B681A1D1B682A6004F142052F
:100B500084F842300123A3E020682968060601F1E9
:100B600004030AD50E682B60002E03DA2D2376428B
:100B700084F843305E480A2319E00E682B6010F0B9
:100B8000400F18BF36B2EFE72B682068191D2960A7
:100B9000010601D51E6802E04606FBD51E885448B2
:100BA0006F2F0CBF08230A23002184F843106568C7
:100BB000A560002DA2BF216821F0040121600EB9BB
:100BC000002D4DD01546B6FBF3F103FB1167C75D51
:100BD00005F8017D3746BB420E46F4D9082B0BD1F0
:100BE0002368DE0708D5236961689942DEBF302398
:100BF00005F8013C05F1FF35521B2261CDF800A03C
:100C00004B4603AA21464046FFF7E2FE01304CD195
:100C10004FF0FF3004B0BDE8F087354881F84570EB
:100C20002968236851F8046B29601D0614D5DF0775
:100C300044BF43F0200323601EB9236823F0200340
:100C400023601023B0E7236843F020032360782358
:100C5000284884F84530E3E7590648BFB6B2E6E7CE
:100C60001546BBE72B6826686169181D28603506A4
:100C70001B6801D5196002E07006FBD519800023BE
:100C800023611546BAE72B681A1D2A601D68626841
:100C900000212846FFF7A4FA08B1401B6060636892
:100CA0002361002384F84330A8E723692A46494694
:100CB0004046D0470130ABD023689B0713D4E0688F
:100CC000039B9842B8BF1846A4E701233246494621
:100CD0004046D04701309BD00135E36803995B1A49
:100CE000AB42F2DCEBE7002504F11906F5E700BFA3
:100CF000EE0F0008FF0F00080A44914200F1FF3395
:100D000000D1704710B511F8014B03F8014F914223
:100D1000F9D110BD884210B501EB020402D984421A
:100D2000234607D8431EA14208D011F8012B03F82F
:100D3000012FF8E7024401468A4200D110BD13F8A2
:100D4000014D02F8014DF7E737B5002944D051F8BD
:100D5000043C0190002BA1F10404B8BFE41800F09A
:100D600013F91E4A0198136833B96360146003B025
:100D7000BDE8304000F00EB9A34208D925686119DA
:100D80008B4201BF19685B6849192160EDE71A467B
:100D90005B680BB1A342FAD911685518A5420BD173
:100DA000246821445418A3421160E0D11C685B6898
:100DB000536021441160DAE702D90C230360D6E7BF
:100DC000256861198B4204BF19685B68636004BFC2
:100DD000491921605460CAE703B030BD9C0000206F
:100DE00070B50E4E0C463168054611B900F0BCF8DE
:100DF00030602146284600F0B7F8431C0AD0C41CD6
:100E000024F00304A04207D0211A284600F0ACF8D1
:100E1000013001D14FF0FF34204670BDA00000200A
:100E20002DE9F041CD1C25F0030508350C2D38BF08
:100E30000C25002D074601DBA94205D90C233B6098
:100E400000263046BDE8F0812E4E00F09DF8336854
:100E50001C4634BB29463846FFF7C2FF431C0446F4
:100E60004DD134682646002E40D12368314638469D
:100E700004EB030800F078F880453AD12168033587
:100E80006D1A25F0030508350C2D38BF0C252946B1
:100E90003846FFF7A5FF01302BD023682B44236091
:100EA0000EE02268521B1ED40B2A16D96119A342E8
:100EB000256018BF5960636808BF316062514B609C
:100EC000384604F10B0600F065F826F00706231DEE
:100ED000F21AB6D09B1BA350B3E76268A3420CBFC3
:100EE00032605A60ECE723466468B2E734467668BD
:100EF000B9E70C233B60384600F04CF8A1E72560C9
:100F0000DEE700BF9C0000202DE9F041804614463A
:100F10000E4621B9BDE8F0411146FFF781BF2AB95D
:100F2000FFF712FF25462846BDE8F08100F038F8AB
:100F30008442074602D8B4EB500F12D821464046EF
:100F4000FFF76EFF05460028EDD0BC422246314631
:100F500028BF3A46FFF7D0FE31464046FFF7F4FE81
:100F6000E1E73546DFE7000038B5064D00230446CB
:100F700008462B60FFF726FB431C02D12B6803B108
:100F8000236038BDA4000020014800F011B800BF64
:100F9000A8000020014800F00CB800BFA800002005
:100FA00051F8043C181F002BBCBF0B58C0187047E9
:100FB00070477047F8B500BFF8BC08BC9E46704744
:0C0FC000F8B500BFF8BC08BC9E467047A6
:100FCC004144432076616C7565203D2025640D0AF3
:100FDC0000232D302B2000686C4C0065666745465D
:100FEC004700303132333435363738394142434497
:100FFC004546003031323334353637383961626327
:04100C0064656600B1
:04101000C50100080E
:04101400A10100082E
:1010180004000020000000000000000000000000A4
:1010280000000000000000000000000000000000B8
:1010380000000000000000000000000000000000A8
:101048000000000000000000000000000000000098
:101058000000000000000000000000000000000088
:101068000000000000000000000000000000000078
:041078000000000074
:0400000508000631B8
:00000001FF
