:020000040800F2
:10000000008001201504000865040008650400084C
:10001000650400086504000865040008000000008D
:10002000000000000000000000000000650400085F
:10003000650400080000000065040008650400086D
:10004000000000006504000865040008650400085D
:1000500065040008650400086504000865040008DC
:1000600065040008650400086504000865040008CC
:1000700065040008650400086504000865040008BC
:10008000650400086504000865040008000000001D
:1000900000000000000000000000000065040008EF
:1000A000650400086504000865040008650400088C
:1000B000650400086504000865040008650400087C
:1000C000650400086504000865040008650400086C
:1000D00065040008650400086504000800000000CD
:1000E00065040008650400086504000800000000BD
:1000F000000000000000000000000000650400088F
:10010000000000006504000865040008650400089C
:1001100000000000000000000000000000000000DF
:10012000650400086504000865040008650400080B
:10013000650400080000000000000000000000004E
:10014000000000000000000000000000650400083E
:1001500065040008650400086504000865040008DB
:1001600065040008650400080000000000000000AD
:10017000000000000000000000000000000000007F
:10018000000000000000000000000000000000006F
:0401900065040008FA
:1001940010B5054C237833B9044B13B10448AFF3BD
:1001A40000800123237010BD000000200000000027
:1001B400B004000808B5034B1BB103490348AFF36F
:1001C400008008BD0000000004000020B004000806
:1001D40080B400AF184B1B68174A43F00103136047
:1001E40000BF154B1B6803F00203002BF9D0134B1F
:1001F4001B68124A43F400431360114B1B68104AF6
:1002040043F4E06343F0050313600B4B0A4A9B6815
:10021400936000BF084B9B6803F00403002BF9D1E3
:10022400054B9B6803F00803002BF3D100BF00BF0C
:10023400BD465DF8047B7047003802400070004002
:10024400003C024080B483B000AF4FF47A737B600B
:10025400134A7B68B2FBF3F3013B3B60114B5B6CCD
:10026400104A43F0010353640F4B9A6A0E493B68EA
:1002740013438B620C4B4FF6FF72DA620A4B1B6816
:10028400094A43F001031360074B1B68064A23F035
:100294001003136000BF0C37BD465DF8047B704744
:1002A4000024F400003802400000014080B483B010
:1002B40000AF7860074B00225A6200BF054B5A6AB0
:1002C4007B689A42FAD300BF00BF0C37BD465DF885
:1002D400047B70470000014080B485B000AF1E4B22
:1002E4005B6C1D4A43F0100353641C4BDB681B4AD0
:1002F40043F00803D360194BDB68184A43F40053F6
:10030400D360164BDB68154A23F48053D360134B38
:10031400DB68124A23F48063D360104B1B690F4AD5
:1003240023F4005313616823FB60FB68BB60FA6825
:10033400BB68D31A1B017B60084B9A68BB68190120
:100344007B680B43054913438B6000BF1437BD46DC
:100354005DF8047B704700BF003802400010014084
:1003640080B483B000AF78600DE07B681A780B4BE3
:100374005A6000BF094B1B6803F04003002BF9D0FF
:100384007B6801337B607B681B78002BEDD100BF59
:1003940000BF0C37BD465DF8047B70470010014078
:1003A40080B500AFFFF714FF00F00EF8FFF74AFF27
:1003B400FFF792FF0348FFF7D3FF4FF47A70FFF77C
:1003C40075FFF7E7C804000880B400AF0E4B1B6B41
:1003D4000D4A43F0010313630C4B1B680B4A43F4AF
:1003E40000231360094B9B68084A43F4002393607D
:1003F400064B5B6A054A43F07003536200BFBD4677
:100404005DF8047B704700BF0038024000000240E2
:100414000D488546AFF300800C480D490D4A002372
:1004240002E0D458C4500433C4188C42F9D30A4AA5
:100434000A4C002301E013600432A242FBD300F013
:1004440011F8FFF7ADFFFEE7008001200000002057
:1004540000000020DC040008000000201C00002034
:10046400FEE7000070B50D4D0D4C641BA410002672
:10047400A64209D10B4D0C4C00F018F8641BA410D3
:100484000026A64205D170BD55F8043B98470136B5
:10049400EEE755F8043B98470136F2E7D404000828
:1004A400D4040008D4040008D8040008F8B500BF38
:1004B400F8BC08BC9E467047F8B500BFF8BC08BC41
:0404C4009E46704799
:0C04C80064616E6832310D0A0000000013
:0404D400B901000862
:0404D8009501000882
:0400000508000415D6
:00000001FF
