:020000040800F2
:100000000080012089020008D9020008D9020008F6
:10001000D9020008D9020008D90200080000000037
:10002000000000000000000000000000D9020008ED
:10003000D902000800000000D9020008D902000817
:1000400000000000D9020008D9020008D902000807
:10005000D9020008D9020008D9020008D902000814
:10006000D9020008D9020008D9020008D902000804
:10007000D9020008D9020008D9020008D9020008F4
:10008000D9020008D9020008D902000800000000C7
:10009000000000000000000000000000D90200087D
:1000A000D9020008D9020008D9020008D9020008C4
:1000B000D9020008D9020008D9020008D9020008B4
:1000C000D9020008D9020008D9020008D9020008A4
:1000D000D9020008D9020008D90200080000000077
:1000E000D9020008D9020008D90200080000000067
:1000F000000000000000000000000000D90200081D
:1001000000000000D9020008D9020008D902000846
:1001100000000000000000000000000000000000DF
:10012000D9020008D9020008D9020008D902000843
:10013000D9020008000000000000000000000000DC
:10014000000000000000000000000000D9020008CC
:10015000D9020008D9020008D9020008D902000813
:10016000D9020008D90200080000000000000000C9
:10017000000000000000000000000000000000007F
:10018000000000000000000000000000000000006F
:04019000D902000888
:1001940010B5054C237833B9044B13B10448AFF3BD
:1001A40000800123237010BD000000200000000027
:1001B4002403000808B5034B1BB103490348AFF3FC
:1001C400008008BD00000000040000202403000893
:1001D40080B500AF00F028F800F036F8104B1B692A
:1001E40003F00103012BF9D100BF0D4B1B6903F090
:1001F4000103012BF9D00B4B5B6903F40053002B73
:1002040006D1084B5B69074A43F400535361E5E7A1
:10021400044B5B69034A23F400535361DEE700BFD8
:1002240000000240000C024080B400AF054B1B6B81
:10023400044A43F00903136300BFBD465DF8047B21
:10024400704700BF0038024080B400AF0B4B1B68FE
:100254000A4A43F080631360094B1B68084A23F081
:1002640003031360064BDB68054A43F00203D360C3
:1002740000BFBD465DF8047B704700BF000C024020
:10028400000002400D488546AFF300800C480D493C
:100294000D4A002302E0D458C4500433C4188C42DD
:1002A400F9D30A4A0A4C002301E013600432A24243
:1002B400FBD300F011F8FFF78BFFFEE7008001206D
:1002C400000000200000002044030008000000207B
:1002D4001C000020FEE7000070B50D4D0D4C641BA2
:1002E400A4100026A64209D10B4D0C4C00F018F8BE
:1002F400641BA4100026A64205D170BD55F8043B2A
:1003040098470136EEE755F8043B98470136F2E783
:100314003C0300083C0300083C03000840030008B9
:10032400F8B500BFF8BC08BC9E467047F8B500BFDE
:08033400F8BC08BC9E467047AE
:04033C00B9010008FB
:04034000950100081B
:040000050800028964
:00000001FF
