:020000040800F2
:100000000080012055030008A5030008A50300088F
:10001000A5030008A5030008A503000800000000D0
:10002000000000000000000000000000A503000820
:10003000A503000800000000A5030008A5030008B0
:1000400000000000A5030008A5030008A5030008A0
:10005000A5030008A5030008A5030008A5030008E0
:10006000A5030008A5030008A5030008A5030008D0
:10007000A5030008A5030008A5030008A5030008C0
:10008000A5030008A5030008A50300080000000060
:10009000000000000000000000000000A5030008B0
:1000A000A5030008A5030008A5030008A503000890
:1000B000A5030008A5030008A5030008A503000880
:1000C000A5030008A5030008A5030008A503000870
:1000D000A5030008A5030008A50300080000000010
:1000E000A5030008A5030008A50300080000000000
:1000F000000000000000000000000000A503000850
:1001000000000000A5030008A5030008A5030008DF
:1001100000000000000000000000000000000000DF
:10012000A5030008A5030008A5030008A50300080F
:10013000A50300080000000000000000000000000F
:10014000000000000000000000000000A5030008FF
:10015000A5030008A5030008A5030008A5030008DF
:10016000A5030008A503000800000000000000002F
:10017000000000000000000000000000000000007F
:10018000000000000000000000000000000000006F
:04019000A5030008BB
:1001940010B5054C237833B9044B13B10448AFF3BD
:1001A40000800123237010BD000000200000000027
:1001B400F003000808B5034B1BB103490348AFF330
:1001C400008008BD0000000004000020F0030008C7
:1001D40080B500AF00F01EF800F056F800F078F893
:1001E4000B4B5B6903F40053002B06D1084B5B698E
:1001F400074A43F40053536105E0054B5B69044A25
:1002040023F4005353614FF4FA7000F08BF8E7E7DE
:10021400000C024080B400AF184B1B68174A43F02F
:100224000103136000BF154B1B6803F00203002B8E
:10023400F9D0134B1B68124A43F400431360114B6B
:100244001B68104A43F4E06343F0050313600B4B4F
:100254000A4A9B68936000BF084B9B6803F0040341
:10026400002BF9D1054B9B6803F00803002BF3D155
:1002740000BF00BFBD465DF8047B704700380240F4
:1002840000700040003C024080B400AF0E4B1B6B7A
:100294000D4A43F0080313630C4B1B680B4A43F0ED
:1002A40080631360094B1B68084A23F000631360E2
:1002B400064B5B68054A23F40053536000BFBD46F8
:1002C4005DF8047B704700BF00380240000C024018
:1002D40080B400AF114B5B6C104A43F001035364CC
:1002E4000F4B9B6A0E4A43F4795343F03F039362E6
:1002F4000B4B4FF6FF72DA62094B1B68084A43F056
:1003040001031360064B1B68054A23F010031360B6
:1003140000BFBD465DF8047B704700BF0038024053
:100324000000014080B483B000AF7860074B002226
:100334005A6200BF054B5A6A7B689A42FAD300BFDF
:1003440000BF0C37BD465DF8047B704700000140D8
:100354000D488546AFF300800C480D490D4A002333
:1003640002E0D458C4500433C4188C42F9D30A4A66
:100374000A4C002301E013600432A242FBD300F0D4
:1003840011F8FFF725FFFEE70080012000000020A0
:100394000000002010040008000000201C000020C1
:1003A400FEE7000070B50D4D0D4C641BA410002633
:1003B400A64209D10B4D0C4C00F018F8641BA41094
:1003C4000026A64205D170BD55F8043B9847013676
:1003D400EEE755F8043B98470136F2E708040008B5
:1003E40008040008080400080C040008F8B500BF5D
:1003F400F8BC08BC9E467047F8B500BFF8BC08BC02
:040404009E46704759
:04040800B90100082E
:04040C00950100084E
:040000050800035597
:00000001FF
