:020000040800F2
:10000000008001208D020008DD020008DD020008EA
:10001000DD020008DD020008DD020008000000002B
:10002000000000000000000000000000DD020008E9
:10003000DD02000800000000DD020008DD0200080B
:1000400000000000DD020008DD020008DD020008FB
:10005000DD020008DD020008DD020008DD02000804
:10006000DD020008DD020008DD020008DD020008F4
:10007000DD020008DD020008DD020008DD020008E4
:10008000DD020008DD020008DD02000800000000BB
:10009000000000000000000000000000DD02000879
:1000A000DD020008DD020008DD020008DD020008B4
:1000B000DD020008DD020008DD020008DD020008A4
:1000C000DD020008DD020008DD020008DD02000894
:1000D000DD020008DD020008DD020008000000006B
:1000E000DD020008DD020008DD020008000000005B
:1000F000000000000000000000000000DD02000819
:1001000000000000DD020008DD020008DD0200083A
:1001100000000000000000000000000000000000DF
:10012000DD020008DD020008DD020008DD02000833
:10013000DD020008000000000000000000000000D8
:10014000000000000000000000000000DD020008C8
:10015000DD020008DD020008DD020008DD02000803
:10016000DD020008DD0200080000000000000000C1
:10017000000000000000000000000000000000007F
:10018000000000000000000000000000000000006F
:04019000DD02000884
:1001940010B5054C237833B9044B13B10448AFF3BD
:1001A40000800123237010BD000000200000000027
:1001B4002803000808B5034B1BB103490348AFF3F8
:1001C400008008BD0000000004000020280300088F
:1001D40080B500AF00F01AF800F028F80A4B5B690C
:1001E400094A43F40053536141F2883000F02EF879
:1001F400054B5B69044A23F40053536141F2883090
:1002040000F024F8EAE700BF000C024080B400AF1D
:10021400054B1B6B044A43F00803136300BFBD4640
:100224005DF8047B704700BF0038024080B400AF23
:10023400054B1B68044A43F08063136000BFBD464E
:100244005DF8047B704700BF000C024080B485B0A9
:1002540000AF78600023FB600BE00023BB6002E08A
:10026400BB680133BB60BB687A2BF9DDFB680133E3
:10027400FB60FA687B689A42EFDB00BF00BF14376B
:10028400BD465DF8047B70470D488546AFF300809A
:100294000C480D490D4A002302E0D458C4500433DD
:1002A400C4188C42F9D30A4A0A4C002301E01360B3
:1002B4000432A242FBD300F011F8FFF789FFFEE7F6
:1002C40000800120000000200000002048030008F6
:1002D400000000201C000020FEE7000070B50D4D5A
:1002E4000D4C641BA4100026A64209D10B4D0C4CE6
:1002F40000F018F8641BA4100026A64205D170BDB6
:1003040055F8043B98470136EEE755F8043B984707
:100314000136F2E7400300084003000840030008E8
:1003240044030008F8B500BFF8BC08BC9E467047FB
:0C033400F8B500BFF8BC08BC9E4670473E
:04034000B9010008F7
:040344009501000817
:040000050800028D60
:00000001FF
